:100000000C9439020C9480020C9480020C948002AF
:100010000C9480020C9480020C9480020C94800258
:100020000C9480020C9480020C9415090C94E8093D
:100030000C9403190C9480020C9480020C9480029E
:100040000C9480020C9465040C9480020C94800241
:100050000C9480020C946B190C9480020C94800216
:100060000C9480020C9480020C9480020C94800208
:100070000C9480020C9480020C9480020C948002F8
:100080000C9480020C9480020C9480020C948002E8
:100090000C9480020C9480020C9480020C948002D8
:1000A0000C9480020C9480020C948002F1A200F067
:1000B00000D100D200D0F1A3018C028CC11E1F2000
:1000C000212223242526272D2E2A2B141A08151722
:1000D0001C180C12132F3031E0041607090A0B0DFF
:1000E0000E0F33340028E1001D1B061905111036D0
:1000F000373800E5C0E3E200002C00000000E6E72E
:10010000C0E4C11E1F20212223242526272D2E2AAC
:100110002B141A09130A0D0F181C332F3031E00469
:10012000151617070B11080C12340028E1001D1BCF
:100130000619050E1036373800E5C0E3E200002C42
:1001400000000000E6E7C6E4353A3B3C3D3E3F4058
:1001500041424344454C010152010101B2014901B0
:10016000464748C50150514F0101010101014A4B69
:10017000000101000165C2C3C4AAA9A84D4E000137
:10018000010101000001000000000101010101C6A0
:10019000C701010101010101010101010101010189
:1001A000010101010101010101010101010101013F
:1001B0000101010101010001010001010101010131
:1001C0000101010100010101010000010000000026
:1001D0000101010100000000010101020203040508
:1001E000050607090A0B0C0E0F1112141517191B1F
:1001F0001D1F212325282A2C2F313436393B3E411F
:100200004346494C4F5255585A5D6164676A6D7058
:100210007376797C7F8386898C8F9295989B9EA23A
:10022000A5A7AAADB0B3B6B9BCBEC1C4C6C9CBCE32
:10023000D0D3D5D7DADCDEE0E2E4E6E8EAEBEDEEB7
:10024000F0F1F3F4F5F6F8F9FAFAFBFCFDFDFEFE29
:10025000FEFFFFFFFFFFFFFFFEFEFEFDFDFCFBFAC2
:10026000FAF9F8F6F5F4F3F1F0EEEDEBEAE8E6E48E
:10027000E2E0DEDCDAD7D5D3D0CECBC9C6C4C1BE6E
:10028000BCB9B6B3B0ADAAA7A5A29E9B9895928F14
:100290008C898683807C797673706D6A6764615D12
:1002A0005A5855524F4C494643413E3B39363431FA
:1002B0002F2C2A282523211F1D1B19171514121155
:1002C0000F0E0C0B0A0907060505040302020101C3
:1002D000010000000A03470048003600300000001B
:1002E00012036700650065006B0068006100630031
:1002F0006B0000000403090409026D00040100A062
:10030000320904000001030101000921110100016B
:10031000223F000705810308000A090401000103C8
:10032000010200092111010001224D00070582038D
:1003300008000A090402000103000000092111015C
:1003400000012236000705830308000A09040300A0
:1003500001030000000921110100012239000705F5
:1003600084031000011201100100000008EDFE607E
:100370006001000102000105010906A1010507193C
:10038000E029E71500250195087501810205081986
:1003900001290595057501910295017503910105E6
:1003A000071900297715002501957875018102C08C
:1003B00005010980A101850216010026B7001A0176
:1003C000002AB700751095018100C0050C0901A134
:1003D000018503160100269C021A01002A9C027561
:1003E0001095018100C005010902A1010901A100C8
:1003F00005091901290515002501950575018102D9
:100400009501750381010501093009311581257FA9
:1004100095027508810609381581257F95017508B3
:100420008106050C0A38021581257F950175088122
:1004300006C0C005010906A101050719E029E71555
:100440000025019508750181029501750881010556
:10045000081901290595057501910295017503910A
:10046000010507190029FF150025FF95067508816C
:1004700000C011241FBECFEFDAE0DEBFCDBF04B64F
:1004800003FE27C08091E3019091E401A091E50172
:10049000B091E6018730904BA740B04BD1F4109259
:1004A000E3011092E4011092E5011092E60114BEFE
:1004B00084B7877F84BF0FB6F894A89580916000B9
:1004C000886180936000109260000FBEE0E0F8E366
:1004D000099511E0A0E0B1E0EAE0F3E402C0059084
:1004E0000D92A433B107D9F721E0A4E3B1E001C034
:1004F0001D92A33EB207E1F70E945E060C94832191
:100500000C940000CF93DF93EC0161111DC00E9499
:10051000501782729A81992369F0882341F085E30C
:1005200090E00E94D116DF91CF910C948B1789E255
:1005300090E0F7CF882329F085E390E00E940E1722
:10054000F2CF89E290E0FACFDF91CF910895E62FC4
:10055000F0E09EE0799FE00DF11D112496E4899F63
:10056000E00DF11D1124E454FF4F84910895282FCC
:10057000205C330BF901EE0FFF1FE455FF4F85910F
:10058000949108958AB18C7D8AB98BB18C7D8BB999
:1005900080B38F7380BB81B38F7381BB089580E874
:1005A00085BF85BF0E94C20280B38C7F80BB81B3B0
:1005B000836081BB6E98769A8AB18F728AB98BB14B
:1005C000806D8BB987B18F7387B988B1806C88B91A
:1005D00084B1847484B985B18B6B85B9AEE3B1E025
:1005E00011961C921E92E4E3F1E0118210821396A0
:1005F0001C921E9212971382128215961C921E92C2
:1006000014971582148217961C921E9216971782C1
:10061000168219961C921E921897118610860895BC
:10062000EF92FF920F931F93CF9304E311E0C0E08A
:10063000C23009F493C008F086C0C13009F48BC001
:10064000509A589880EA8A95F1F78FB1809580FB8F
:10065000EE24E0F8F12C799987C082E090E08E29B1
:100660009F29669984C024E030E0822B932B379930
:1006700081C028E030E0822B932B36997EC020E1A8
:1006800030E0822B932B1F997BC020E230E0822B3D
:10069000932B4C9978C020E430E0822B932B19994E
:1006A00075C020E830E0822B932B189972C020E0AF
:1006B00031E0822B932B1D996FC020E032E0822B1A
:1006C000932B1C996CC020E034E0822B932B4F9924
:1006D00069C020E038E0822B932B4E9966C020E061
:1006E00030E1822B932B1B9963C020E030E2822BF8
:1006F000932BF801219131918F012817390731F09F
:1007000032979183808385E0809300010E94C2022A
:10071000CF5FC53009F08CCF80910001882361F054
:10072000815080930001882309F445C08FE99FE040
:100730000197F1F700C0000081E0CF911F910F9168
:10074000FF90EF900895C33061F0C43009F078CF86
:10075000559A5D9877CF519A599874CF869A8E980A
:1007600071CF879A8F986ECF90E080E078CF30E09D
:1007700020E07BCF30E020E07ECF30E020E081CF72
:1007800030E020E084CF30E020E087CF30E020E090
:100790008ACF30E020E08DCF30E020E090CF30E015
:1007A00020E093CF30E020E096CF30E020E099CFFA
:1007B00030E020E09CCF80913401909135019093FE
:1007C0003F0180933E0180913601909137019093D3
:1007D00041018093400180913801909139019093BB
:1007E00043018093420180913A0190913B019093A3
:1007F00045018093440180913C0190913D0190938B
:1008000047018093460198CFE82FF0E0EE0FFF1FDD
:10081000E25CFE4F808191810895089580914B01A3
:10082000811116C081E080934B0180918100886026
:1008300080938100809181008160809381008FB7D7
:10084000F89493E09093890090ED909388008FBF87
:1008500008952E9A08952E980895EFE6F0E080818D
:10086000826080830895EFE6F0E080818D7F808351
:10087000089580934A01269A882321F00E940E044D
:100880000C942D040E9433040C942B0480914A0193
:10089000813021F485E5809349010895823089F4FF
:1008A000809148018F5F80934801E82FF0E0EC527F
:1008B000FE4FE491E09349018F3F79F71092480190
:1008C0000895833051F78FEFE6CF1F920F920FB646
:1008D0000F9211242F933F934F935F936F937F93C6
:1008E0008F939F93AF93BF93EF93FF9380914C01AE
:1008F0008F5F80934C0190910101891306C0109283
:100900004C010E9429040E94460490914C01809160
:100910004901981302C00E942B04FF91EF91BF91EF
:10092000AF919F918F917F916F915F914F913F9187
:100930002F910F900FBE0F901F90189581FF03C04D
:10094000229A2A9808952298FCCF80915D010895FB
:10095000CF93DF9300D01F92CDB7DEB79C0180917B
:10096000D901843019F593E099833B832A839093CE
:10097000E9008FEF9091E800815095FD06C095ED5C
:100980009A95F1F700008111F5CF8091E80085FF7D
:100990000DC050E040E063E070E0CE0101960E949F
:1009A0000A078091E8008E778093E8000F900F90FF
:1009B0000F90DF91CF910895CF93DF9300D01F92D6
:1009C000CDB7DEB72091D901243021F522E029836B
:1009D0009B838A8383E08093E9008FEF9091E80006
:1009E000815095FD06C095ED9A95F1F700008111B3
:1009F000F5CF8091E80085FF0DC050E040E063E056
:100A000070E0CE0101960E940A078091E8008E777F
:100A10008093E8000F900F900F90DF91CF91089591
:100A20009C018091D9018430F9F482E08093E9003F
:100A30009FEF8091E800915085FD06C085ED8A9575
:100A4000F1F700009111F5CF8091E80085FF0CC00F
:100A500050E040E065E070E0C9010E940A07809123
:100A6000E8008E778093E8000895CF93DF93EC0140
:100A70008091D9018430F1F490910C019923E9F02F
:100A800090910D019923C9F08093E9008FEF909127
:100A9000E800815095FD06C095E19A95F1F70000B8
:100AA0008111F5CF8091E80050E040E060E170E016
:100AB00085FD1AC0DF91CF91089581E08093E90010
:100AC0008FEF9091E800815095FD06C095ED9A95C5
:100AD000F1F700008111F5CF8091E80085FFEACFA2
:100AE00050E040E068E070E0CE010E940A0780918B
:100AF000E8008E778093E80080E1FE01ADE4B1E08C
:100B000001900D928A95E1F7D5CF8091D80181119E
:100B100009C00E949A080E94F7088091E200846050
:100B20008093E20008951092D8010895089590E00E
:100B300080E00C9439040C94FF1842E061EC81E0F1
:100B40000E94180842E061EC82E00E94180842E02E
:100B500061EC83E00E94180842E161EC84E00C94AF
:100B600018088091DB01833009F455C030F48130DE
:100B700071F1823009F491C008958A3009F47DC082
:100B80008B3009F463C0893009F044C08091DA01E8
:100B9000813209F03FC08091DE019091DF01009722
:100BA00011F00397B9F58091E800877F8093E80002
:100BB0008091E80082FF2AC08091F10080935D015E
:100BC0008091E8008B778093E8000C944C0880912A
:100BD000DA01813AF9F48091E800877F8093E80098
:100BE0008091DE019091DF01892B61F460E18DE459
:100BF00091E070E00E9459078091E8008B77809324
:100C0000E800089560E090E080E0F3CF8091D901A2
:100C10008111CECF08958091DA01813AD9F7809180
:100C2000DE019091DF01892BA9F78091E800877F91
:100C30008093E8008091E80080FFFCCF80910C0158
:100C40008093F1008091E8008E77BDCF8091DA012A
:100C5000813201F78091DE019091DF01892BD1F67D
:100C60008091E800877F8093E8000E944C08809183
:100C7000DC0180930C010C9495118091DA01813292
:100C800049F68091E800877F8093E8000E944C0835
:100C90008091DD0180935E0108958091DA01813AAF
:100CA00009F0B8CF8091E800877F8093E8008091B9
:100CB000E80080FFFCCF80915E01C2CF84B7877FC0
:100CC00084BF0FB6F894A8958091600088618093E6
:100CD0006000109260000FBE80E890E00FB6F894BC
:100CE00080936100909361000FBE0E94CD0B0E9423
:100CF0009A080E94F7088091E20084608093E200E5
:100D000078948091D9018430E1F70E94CF0B82E082
:100D100091E00E94790B8091D901853019F00E94F1
:100D2000D70BF9CF0E94BF188091D701882399F380
:100D30000E94EA18882379F30E94F406ECCF292F49
:100D400033272330310579F158F421303105F1F0A2
:100D50002230310519F190E080E030E020E01AC047
:100D60002132310599F122323105A9F7643098F723
:100D700070E0FB01EE0FFF1FE65EFE4F2081318128
:100D80006A5E7E4FFB01808190E004C082E190E0CA
:100D900025E633E0FA013183208308958DE690E063
:100DA00028EF32E0F7CF99278130910561F028F0E4
:100DB000029789F6E4EDF2E002C0E4EFF2E08491FC
:100DC00090E09F01E7CFE0EEF2E0F9CF643008F069
:100DD000C2CFE62FF0E0EE0FFF1FEE5DFE4F208149
:100DE000318189E090E0D6CF80E189BD82E189BD83
:100DF00009B400FEFDCF8091D8008F7D8093D8008C
:100E00008091E00082608093E0008091E00081FDAD
:100E1000FCCF0895AF92BF92CF92DF92FF920F93D3
:100E20001F93CF93DF936C01EB018A010E946B0843
:100E3000F82E811123C00115110539F0F8018081C8
:100E40009181C81BD90BC80ED91EB12CA12C20979B
:100E5000A9F08091E80085FD22C08091E8008E779E
:100E60008093E80001151105A1F0F80180819181BE
:100E7000A80EB91EB182A08285E0F82E8F2DDF91D9
:100E8000CF911F910F91FF90DF90CF90BF90AF90C7
:100E900008950E946B088823D1F2F82EEFCFF60157
:100EA00081916F018093F1002197FFEFAF1ABF0A84
:100EB000CECFFC018091E0019091E1018617970768
:100EC000A0F06115710529F49091E8009E77909348
:100ED000E80090E06115710551F4911108C080910E
:100EE000E80082FF35C080E00895BC01F2CF809118
:100EF000D9018823C9F18530C9F18091E80083FDCB
:100F000031C08091E80082FDEACF8091E80080FF47
:100F1000E1CF2091F3008091F200322F282F61154C
:100F2000710519F02830310558F091E0283031056D
:100F300009F090E02091E8002E772093E800CACFD6
:100F400081918093F100615071092F5F3F4FE7CF8E
:100F50008091D901882341F0853041F08091E800EB
:100F600083FFBDCF81E0089582E0089583E0089576
:100F7000FC018091E0019091E10186179707A0F0B4
:100F80006115710529F48091E8008E778093E8005F
:100F900090E06115710551F4911108C08091E8004D
:100FA00082FF36C080E00895BC01F2CF8091D90164
:100FB0008823D1F18530D1F18091E80083FD32C0E2
:100FC0008091E80082FDEACF8091E80080FFE1CFC8
:100FD0002091F3008091F200322F282F61157105C6
:100FE00019F02830310558F091E02830310509F02A
:100FF00090E08091E8008E778093E800CACF8491DA
:101000008093F1003196615071092F5F3F4FE6CF19
:101010008091D901882341F0853041F08091E8002A
:1010200083FFBCCF81E0089582E0089583E00895B6
:10103000982F973028F08F708093E90081E0089511
:101040009093E900242F762F50E0981731F070919B
:10105000EC002091ED005091F00021FD02C09F5F57
:10106000E8CF3091EB003E7F3093EB003091ED0004
:101070003D7F3093ED003091EB0031603093EB0019
:101080007093EC002093ED005093F0002091EE005F
:1010900027FDE5CF80E008958091DA0187FF13C036
:1010A0008091E80082FF06C08091E8008B778093F2
:1010B000E80004C08091D9018111F2CF0895809198
:1010C000D9018823D9F38091E80080FFF8CF80917F
:1010D000E8008E77ECCF2091E4003091E50085E6C2
:1010E0009091EC0090FF06C09091E80090FF06C040
:1010F00080E008959091E80092FDFACF9091D90197
:10110000992391F0953091F09091EB0095FD10C0EE
:101110004091E4005091E5002417350709F3815010
:101120009A01F1F684E0089582E0089583E008953D
:1011300081E008950E9408090E941009E0EEF0E0A5
:10114000808181608083E8EDF0E080818F7780830B
:1011500019BCA7EDB0E08C918E7F8C9380818F7E3F
:1011600080831092D80108950F931F93CF93DF933C
:101170000E9408090E941009C8EDD0E088818F778D
:10118000888388818068888388818F7D888319BC63
:101190001092D9011092D5011092D7011092D60168
:1011A00000EE10E0F80180818B7F80838881816070
:1011B000888342E060E080E00E941808E1EEF0E001
:1011C00080818E7F8083E2EEF0E080818160808389
:1011D000808188608083F80180818E7F8083888110
:1011E00080618883DF91CF911F910F910895E8ED81
:1011F000F0E080818F7E8083E7EDF0E08081816088
:10120000808384E082BF81E08093D8010C94B4088D
:10121000E8EDF0E080818E7F80831092E2000895F7
:101220001092DA001092E10008951F920F920FB60B
:101230000F9211242F933F934F935F936F937F935C
:101240008F939F93AF93BF93EF93FF938091E100B0
:1012500082FF0BC08091E20082FF07C08091E10015
:101260008B7F8093E1000E94780B8091DA0080FFF1
:1012700019C08091D80080FF15C08091DA008E7F60
:101280008093DA008091D90080FF94C080E189BD0D
:1012900082E189BD09B400FEFDCF81E08093D901D0
:1012A0000E9485058091E10080FF19C08091E200D5
:1012B00080FF15C08091E2008E7F8093E2008091D4
:1012C000E20080618093E2008091D8008062809388
:1012D000D80019BC85E08093D9010E9497058091C0
:1012E000E10084FF29C08091E20084FF25C080E1F5
:1012F00089BD82E189BD09B400FEFDCF8091D8008F
:101300008F7D8093D8008091E1008F7E8093E100F3
:101310008091E2008F7E8093E2008091E200816004
:101320008093E2008091D501882309F449C084E0CC
:101330008093D9010E949B058091E10083FF29C021
:101340008091E20083FF25C08091E100877F809338
:10135000E10082E08093D9011092D5018091E100F3
:101360008E7F8093E1008091E2008E7F8093E20087
:101370008091E20080618093E20042E060E080E0E2
:101380000E9418088091F00088608093F0000E940D
:101390009605FF91EF91BF91AF919F918F917F91B2
:1013A0006F915F914F913F912F910F900FBE0F90D2
:1013B0001F90189519BC1092D9010E94930572CF05
:1013C0008091E30087FD02C081E0B2CF83E0B0CF1F
:1013D0001F920F920FB60F9211242F933F934F93AA
:1013E0005F936F937F938F939F93AF93BF93CF93AD
:1013F000EF93FF93C091E900CF708091EC001092C1
:10140000E9008091F000877F8093F00078940E943B
:10141000240A1092E9008091F00088608093F00027
:10142000C093E900FF91EF91CF91BF91AF919F9150
:101430008F917F916F915F914F913F912F910F907D
:101440000FBE0F901F9018951F93CF93DF93CDB7CA
:10145000DEB7AA970FB6F894DEBF0FBECDBFEAED98
:10146000F1E08091F100819321E0E23EF207C9F7BB
:101470000E94B1058091E80083FF42C08091DA01AB
:101480009091DB019A3008F03BC0E92FF0E0E55B7A
:10149000F54F0C943821550A790A800A790A800A96
:1014A000D40AF60A800A4B0B580B803879F0823840
:1014B00039F58091DE018F708093E9008091EB0017
:1014C00085FB882780F91092E90006C08091D6013B
:1014D0009091D701911182609091E800977F90934D
:1014E000E8008093F1001092F1008091E8008E777F
:1014F0002DC0282F2D7F21F48823D1F0823059F17F
:101500008091E80083FF0AC08091E800877F809384
:10151000E8008091EB0080628093EB00AA960FB602
:10152000F894DEBF0FBECDBFDF91CF911F9108951C
:101530008091DC01813021F7933009F080E08093C5
:10154000D7011092E9008091E800877F8093E8003E
:101550000E944C08D5CF8091DC018111F2CF80919F
:10156000DE018F7069F28093E9002091EB0020FF8B
:10157000E8CF933031F48091EB0080628093EB00F0
:10158000E0CF9091EB0090619093EB0021E030E090
:1015900001C0220F8A95EAF72093EA001092EA0030
:1015A0008091EB008860EACF8111AACF1091DC0115
:1015B0001F778091E3008078812B8093E3008091F6
:1015C000E800877F8093E8000E944C088091E80043
:1015D00080FFFCCF8091E30080688093E30083E08C
:1015E000111101C082E08093D9018ACF80588230E6
:1015F00008F086CF8091DC019091DD018C3D23E0E5
:101600009207A1F583E08A838AE289834FB7F89431
:10161000DE01139620E03EE051E2E32FF0E050932C
:101620005700E49120FF03C0E295EF703F5FEF7039
:101630008E2F90E0EA30C0F0C7968D939D932F5F78
:10164000243159F74FBF8091E800877F8093E800ED
:101650006AE270E0CE0101960E9459078091E8008D
:101660008B778093E8004CCFC096E7CFAE014F5FF9
:101670005F4F6091DE010E949F06BC01892B09F437
:101680003FCF9091E800977F9093E80089819A81FD
:101690000E94B807E3CF803809F032CF8091E8008C
:1016A000877F8093E8008091D5018093F1001DCF62
:1016B000811126CF9091DC01923008F021CF8091EA
:1016C000E800877F8093E8009093D5010E944C0842
:1016D0008091D501882331F084E08093D9010E9464
:1016E0009D050ECF8091E30087FDF6CF81E0F5CF19
:1016F000089590936401809363010895E0916301DC
:10170000F0916401309721F00190F081E02D09946F
:1017100080E00895E0916301F0916401309721F039
:101720000280F381E02D09940895E0916301F09126
:101730006401309721F00480F581E02D099408952B
:1017400020916101309162012817390771F090935F
:10175000620180936101E0916301F091640130972F
:1017600021F00680F781E02D0994089520915F0112
:10177000309160012817390771F0909360018093D0
:101780005F01E0916301F0916401309721F00084E2
:10179000F185E02D0994089508950C94CC0B0E94D6
:1017A0002C190E94CF020E94F9190C94611F5F92BC
:1017B0006F927F928F929F92AF92BF92CF92DF9261
:1017C000EF92FF920F931F93CF93DF93CDB7DEB7C6
:1017D0002A970FB6F894DEBF0FBECDBF0E9410034C
:1017E00096E6A92E91E0B92E10E000E088248394BB
:1017F000912C502E802F0E9404047C01F501C19091
:10180000D1905F01C816D90609F45EC08091C3016A
:1018100081FD0E940D0490E080E0CE24DF2434019D
:10182000082E02C0660C771C0A94E2F79601262166
:101830003721232B09F443C08E835F82E620F720F3
:1018400081E0EF2809F480E088870E9435198160E3
:10185000782F9A8789874E815F8168858A850E9463
:10186000910C000F111FF801EA59FE4F8081918100
:1018700068267926718260820E94A91C0E947E0BD4
:10188000909165018917B9F10E947E0B80936501E3
:101890002A960FB6F894DEBF0FBECDBFDF91CF9171
:1018A0001F910F91FF90EF90DF90CF90BF90AF907E
:1018B0009F908F907F906F905F900C949E04019604
:1018C0008E30910509F0ABCF0F5F1F4F053011052A
:1018D00009F08FCF8FEF89838A831B820E9435198D
:1018E0008160782F9D838C8349815A816B818D81A2
:1018F0000E94910CC1CF2A960FB6F894DEBF0FBE9E
:10190000CDBFDF91CF911F910F91FF90EF90DF90AE
:10191000CF90BF90AF909F908F907F906F905F908F
:101920000895CF93DF93CDB7DEB72B970FB6F8941A
:10193000DEBF0FBECDBF4F83588769877A878B87FD
:101940001E821D8285E0FE013796DE011196019010
:101950000D928A95E1F749815A816B817C818D8155
:101960009E812B960FB6F894DEBF0FBECDBFDF91E0
:10197000CF910C943414CF93C82F882309F4AFC0AF
:10198000823879F40E947E0B81FDA9C089E30E9410
:10199000D1160E948B1789E30E940E17CF910C94E9
:1019A0008B17833859F40E947E0B80FD98C083E525
:1019B0000E94D1160E948B1783E5EECF843859F42C
:1019C0000E947E0B82FD8BC087E40E94D1160E948C
:1019D0008B1787E4E1CF8CEF8C0F813A48F48C2F82
:1019E0000E94D11E81117BC08C2F0E94D116D6CFB0
:1019F00080E28C0F883048F4C77081E001C0880F06
:101A0000CA95EAF70E945317C9CF8BE58C0F833034
:101A100068F481E890E0C53A31F083E890E0C63A96
:101A200011F482E890E0CF910C94A00B88E58C0F24
:101A3000833108F054C082EE90E0C83A09F44CC0FB
:101A400089EE90E0C93A09F447C08AEE90E0CA3ABC
:101A500009F442C085EB90E0CB3AF1F186EB90E0DF
:101A6000CC3AD1F187EB90E0CD3AB1F18CEC90E03B
:101A7000C03B91F18DEC90E0CE3A71F183E891E0BA
:101A8000CF3A51F18AE891E0C13B31F182E991E02E
:101A9000C23B11F184E991E0C33BF1F081E292E0B5
:101AA000C43BD1F083E292E0C53BB1F084E292E026
:101AB000C63B91F085E292E0C73B71F086E292E08E
:101AC000C83B51F087E292E0C93B31F090E080E002
:101AD000CA3B11F48AE292E0CF910C94B60BCF91FD
:101AE0000895882309F44BC0823871F40E947E0B5C
:101AF00081FF45C089E30E94D1160E948B1789E3BC
:101B00000E940E170C948B17833859F40E947E0B99
:101B100080FF35C083E50E94D1160E948B1783E5B4
:101B2000EFCF843859F40E947E0B82FF28C087E4EF
:101B30000E94D1160E948B1787E4E2CF9CEF980F8A
:101B4000913AF0F290E2980F983050F4877091E05B
:101B500001C0990F8A95EAF7892F0E945917D2CFB1
:101B60009BE5980F933020F490E080E00C94A00B5C
:101B7000885A833120F490E080E00C94B60B0895ED
:101B8000882321F00E9453170C948B170895882303
:101B900021F00E9459170C948B170895AF92BF92B1
:101BA000CF92DF92EF92FF920F931F93CF93DF9329
:101BB00000D000D01F92CDB7DEB75C0185E0F50103
:101BC000DE01119601900D928A95E1F7F5010081F1
:101BD000118183819481892B39F01F3F19F481E0B1
:101BE0000F3F19F080E001C081E080FDC7C0F50122
:101BF000E580E2942FE0E222F280F1100E94F21FD1
:101C000009831A8389819A810E948F168C010E9410
:101C10008E160E945515E12FE295EF70F0E0ED5E13
:101C2000F14F0C943821230E230E600E600EF10E3E
:101C3000260FBE0EBE0E3F0FBE0E2B102B10C01077
:101C4000D7103E116E11F12FFF70EF2E107F19F09B
:101C5000E29490EFE922FF20C9F0EE2029F08E2DCA
:101C60000E9464170E948B17802F0F900F900F9087
:101C70000F900F90DF91CF911F910F91FF90EF90F8
:101C8000DF90CF90BF90AF900C94BB0C802F0E9440
:101C9000710DEE2009F472C08E2D0E946A170F900C
:101CA0000F900F900F900F90DF91CF911F910F9198
:101CB000FF90EF90DF90CF90BF90AF900C948B1778
:101CC000812F8F70D82E107F103219F0D29480EFB0
:101CD000D822002379F0013009F460C0FF2009F414
:101CE0006CC0EE2059F0F501858180FFBDCF8F706B
:101CF000858304C0FF2049F1E11012C08D2D0F90A3
:101D00000F900F900F900F90DF91CF911F910F9137
:101D1000FF90EF90DF90CF90BF90AF900C94C00DEC
:101D2000E1E08D2DEE12EBCF0F900F900F900F9002
:101D30000F90DF91CF911F910F91FF90EF90DF9067
:101D4000CF90BF90AF900C947517E11014C00E9413
:101D500078178D2D0F900F900F900F900F90DF91AF
:101D6000CF911F910F91FF90EF90DF90CF90BF9098
:101D7000AF900C94C70DF1E0EF12E9CF0F900F90E8
:101D80000F900F900F90DF91CF911F910F91FF90C7
:101D9000EF90DF90CF90BF90AF900895FF2049F073
:101DA00085E08E1558F30E9450178D2109F4A6CFB7
:101DB000D0CFE4E0EE1510F3CCCFEE2051F2802F1F
:101DC0000F900F900F900F900F90DF91CF911F9178
:101DD0000F91FF90EF90DF90CF90BF90AF900C9459
:101DE000710D812F869586958370C9F0813031F60B
:101DF000C8019370F11002C090E080E00F900F9046
:101E00000F900F900F90DF91CF911F910F91FF9046
:101E1000EF90DF90CF90BF90AF900C94B60BC801BD
:101E20009370F11002C090E080E00F900F900F903F
:101E30000F900F90DF91CF911F910F91FF90EF9036
:101E4000DF90CF90BF90AF900C94A00B802FFF201D
:101E500099F00E94B21B0F900F900F900F900F906F
:101E6000DF91CF911F910F91FF90EF90DF90CF9076
:101E7000BF90AF900C949E1C0E941A1CECCF812F37
:101E8000837009F071C0F11079CF202F229526952B
:101E90002770220F220F602F6F70C62ED12CF12CCD
:101EA000E12C022E04C0CC0CDD1CEE1CFF1C0A949D
:101EB000D2F760E070E0CB0104FF0FC06FE070E08C
:101EC00080E090E004C0660F771F881F991F2A9555
:101ED000D2F760957095809590951695169513702C
:101EE0001230C1F060F56C297D298E299F291130AF
:101EF00051F10F900F900F900F900F90DF91CF91B5
:101F00001F910F91FF90EF90DF90CF90BF90AF9017
:101F10000C947C156C297D298E299F290F900F9098
:101F20000F900F900F90DF91CF911F910F91FF9025
:101F3000EF90DF90CF90BF90AF900C9498150E94D7
:101F40007C15C701B6010F900F900F900F900F9066
:101F5000DF91CF911F910F91FF90EF90DF90CF9085
:101F6000BF90AF900C9460158695FF2011F0812FE3
:101F70008170882309F402CF202F2295269527709F
:101F8000220F220F602F6F70C62ED12CF12CE12C66
:101F9000022E04C0CC0CDD1CEE1CFF1C0A94D2F7F0
:101FA00060E070E0CB0104FF0FC06FE070E080E004
:101FB00090E004C0660F771F881F991F2A95D2F7FB
:101FC00060957095809590951695169513701230C2
:101FD000C1F060F56C297D298E299F29113051F1BE
:101FE0000F900F900F900F900F90DF91CF911F9156
:101FF0000F91FF90EF90DF90CF90BF90AF900C9437
:1020000056166C297D298E299F290F900F900F90CD
:102010000F900F90DF91CF911F910F91FF90EF9054
:10202000DF90CF90BF90AF900C9472160E9456161E
:10203000C701B6010F900F900F900F900F90DF9196
:10204000CF911F910F91FF90EF90DF90CF90BF90B5
:10205000AF900C943A16003FA9F150F4003E28F5D9
:10206000FF2009F488C0E110FFCD812F8F714CC093
:10207000023F09F45AC008F443C0033F89F7FF2028
:1020800009F468C0812F8F710F900F900F900F90FF
:102090000F90DF91CF911F910F91FF90EF90DF9004
:1020A000CF90BF90AF900C94BE150F70812F8F71A1
:1020B000FF2021F00E94D315802F21CE0E94F4151D
:1020C000802F48CEFF20B9F0F4E0FE1508F456CE7C
:1020D000812F8F710F900F900F900F900F90DF91C5
:1020E000CF911F910F91FF90EF90DF90CF90BF9015
:1020F000AF900C94191685E08E1508F43FCEE8CF0A
:10210000812F8F71FF20A9F00F900F900F900F90EB
:102110000F90DF91CF911F910F91FF90EF90DF9083
:10212000CF90BF90AF900C94D315812F8F71FF206B
:1021300059F30F900F900F900F900F90DF91CF9168
:102140001F910F91FF90EF90DF90CF90BF90AF90D5
:102150000C94F4150F900F900F900F900F90DF914B
:10216000CF911F910F91FF90EF90DF90CF90BF9094
:10217000AF900C94B415E11022CE812F8F71D9CF7E
:10218000412F4F70602FC5010E94BC180F900F9017
:102190000F900F900F90DF91CF911F910F91FF90B3
:1021A000EF90DF90CF90BF90AF900C94DD14F110C2
:1021B000E5CD1F70123009F43FC0B0F4112359F17E
:1021C000113009F0DBCD0F900F900F900F900F9012
:1021D000DF91CF911F910F91FF90EF90DF90CF9003
:1021E000BF90AF900C94881F1330B9F1143009F0F0
:1021F000C5CD802F0F900F900F900F900F90DF9113
:10220000CF911F910F91FF90EF90DF90CF90BF90F3
:10221000AF900C94D71F0F900F900F900F900F90CE
:10222000DF91CF911F910F91FF90EF90DF90CF90B2
:10223000BF90AF900C94721F0F900F900F900F9063
:102240000F90DF91CF911F910F91FF90EF90DF9052
:10225000CF90BF90AF900C94A11F0F900F900F9054
:102260000F900F90DF91CF911F910F91FF90EF9002
:10227000DF90CF90BF90AF900C94B41F1F701230BE
:10228000B9F060F41123F1F0113009F077CD84E852
:1022900090E0F110CACD85E890E0C7CD133069F029
:1022A000143009F06BCDFF20B1F388E890E0BDCD8C
:1022B00086E890E0F110B9CDEECF87E890E0F1101C
:1022C000B4CDE9CFFF2009F459CD9091D401892FE5
:1022D0008F7E94FF80618093D40150CD412F4F7049
:1022E000602FC5010F900F900F900F900F90DF910E
:1022F000CF911F910F91FF90EF90DF90CF90BF9003
:10230000AF900C9482020E9472170E9442170E94A2
:102310008B170E944B1D0E949E1C90E080E00E9443
:10232000A00B90E080E00C94B60B0E9461170C9417
:1023300083110E948F16292F22952F702C3058F46C
:102340002A3018F42250223050F4803E10F0803FA2
:1023500031F481E008952C3021F02F3011F080E02D
:10236000089593FB882780F90895CF93DF9300D0D9
:1023700000D01F92CDB7DEB70F900F900F900F9047
:102380000F90DF91CF910895CF93DF9300D000D0CD
:1023900000D0CDB7DEB726960FB6F894DEBF0FBEDD
:1023A000CDBFDF91CF9108951F93CF93DF93C0915D
:1023B000700116E0809171018C1304C0DF91CF9100
:1023C0001F910895D0E01C9FF0011D9FF00D112476
:1023D000EE58FE4F408151816281738184819581E5
:1023E0000E94C4112196C770E5CF4091A20150917F
:1023F000A3016091A4017091A5018091A601909123
:10240000A7010C94C4111F93CF93DF938091A70170
:10241000807FD1F48091A4018823B1F08091700174
:10242000D0917101B091A201C091A3014091A50189
:102430005091A601A1E0BF3F09F0A0E0BA0160956C
:10244000709516E0D81304C0DF91CF911F910895C5
:1024500021E04115510521F02A2FCF3F09F020E05E
:1024600090E020FD38C0189FF001199FF00D112455
:10247000EE58FE4F21812C132EC020812B132BC030
:102480002281211128C0238134812417350700F1CE
:10249000241B350B283C3105F0F42091A7012F7047
:1024A00020612093A70126E0289FF001299FF00DCD
:1024B0001124E958FE4F80818F708061808382EA09
:1024C00091E00E94CE0DDF91CF911F910C94D41119
:1024D000260F371FDFCF01968770B4CFAF92BF9220
:1024E000CF92DF92EF92FF920F931F93CF93DF93E0
:1024F000CDB7DEB761970FB6F894DEBF0FBECDBF84
:102500008C0185E0F801DE011D9601900D928A95FF
:10251000E1F7D8014C9111965C9111971296EC90CD
:102520003091A2016091A3018091A5019091A60133
:1025300021E0009731F06F3F19F421E03F3F09F0AF
:1025400020E0B22FB170BB2E20FD80C1F801C38006
:10255000D480A090A401AA2009F427C1C816D906E6
:10256000D0F1D601A81BB90BCD01FF24F394883C10
:10257000910508F0F12C8091A701982F907FFF2002
:1025800009F4CAC0911187C0FE2C651329C0341309
:1025900027C0E11025C08F7080618093A7010E9441
:1025A000F51182EA91E00E94CE0D8091A701F80119
:1025B00085838F2D61960FB6F894DEBF0FBECDBF19
:1025C000DF91CF911F910F91FF90EF90DF90CF900F
:1025D000BF90AF900895809590958C0D9D1DC5CFAF
:1025E00081E0CD2831F05F3F19F481E04F3F09F0E1
:1025F00080E080FD24C081E08E25F82FF170DF2E71
:1026000080FF3FC0809170012091710136E08213FC
:1026100018C04D875E878D859E850E948F16292F55
:1026200022952F70223008F1243030F59F7009F187
:10263000D80115969C91907FE1F4FB2CBACF80E0F5
:10264000DCCF90E0389FF001399FF00D1124EE5857
:10265000FE4F6181561306C06081461303C062813C
:102660006E110FC001968770D2CF9F7011F0882332
:1026700021F3805E883008F3C8010E94CE0DBD2C86
:10268000DCCFEE2009F495CF8091A7018160809383
:10269000A701F12C8ECF651312C0341310C0E110C6
:1026A0000EC0F8018583C8010E94CE0D86E0F801B6
:1026B000A2EAB1E001900D928A95E1F741C04D8701
:1026C0005E878D859E850E949911882309F4C8C074
:1026D000EE2009F4C5C08091A701803270F02091EE
:1026E000A2013091A30138872F831986DB86CA8621
:1026F0008C87CE0107960E94CE0D86E0F801A2EAF3
:10270000B1E001900D928A95E1F70E9403120E94B8
:10271000F511FF24F3944DCF911115C07C2DD98A6A
:10272000C88A6E2D89890E94B51182EA91E00E94C3
:10273000CE0D86E0E2EAF1E0DF011D928A95E9F72D
:102740000E94F51136CF651312C0341310C0E1108A
:102750000EC0F8018583C8010E94CE0DE2EAF1E0C7
:1027600086E0DF011D928A95E9F7FA2C22CF4D878A
:102770005E878D859E850E949911882309F470C01B
:10278000EE2009F46DC08091A701803208F4B5CF26
:102790002091A2013091A3013A8329831B82DD821B
:1027A000CC828E83CE010196A6CFC816D90638F109
:1027B000F601E81BF90BCF01F12C883C910508F0DC
:1027C0003DC0FE2CEE2009F44BC0651326C0341327
:1027D00024C08091A70180FD17C0982F907FA1F0A1
:1027E000D80115968C931597903F09F45CCF982FDC
:1027F000907F905F8F70892B15968C9354CF809526
:1028000090958C0D9D1DD8CF86E0F801A2EAB1E02D
:1028100001900D928A95E1F7CCCE4D875E878D852C
:102820009E850E949911811168CF8091A7018160D6
:102830008093A701C8010E94CE0DBBCE7C2DD98A02
:10284000C88A6E2D89890E94B51173CFEE2041F0A0
:102850004D875E878D859E850E94991181114DCF90
:10286000C8010E94CE0D55CF1F93CF93DF93CDB7F4
:10287000DEB72C970FB6F894DEBF0FBECDBF4F83E7
:10288000588769877A878B879C87CE0107960E9435
:102890006E12882309F442C09F8188852A853B8572
:1028A000232B39F08F3F19F481E09F3F19F080E02E
:1028B00001C081E080FD08C04F81588569857A8517
:1028C0008B859C850E94C41116E0809170019091C7
:1028D0007101891709F467C0819FC00111248E58C6
:1028E0009E4F0E946E12882309F45DC0E091700132
:1028F0001E9FF0011124EE58FE4F408151816281EC
:102900007381848195810E94C4118091700190E04F
:1029100001968770992780937001D7CF86E0FE01DA
:102920003796DE01119601900D928A95E1F79F810D
:1029300088852A853B85232B39F08F3F19F481E068
:102940009F3F19F080E001C081E080FDBDCF209164
:10295000710130E0C901019687709927409170019B
:102960004817190699F096E0929FD001939FB00DF9
:102970001124AE58BE4FFE01319601900D929A95EA
:10298000E1F7809371010E94D4119ECF0E949511AE
:10299000109271011092700186E0E2EAF1E0DF012D
:1029A0001D928A95E9F72C960FB6F894DEBF0FBEFC
:1029B000CDBFDF91CF911F910895EF92FF920F93BA
:1029C0001F93CF93DF938C01892B81F0F12CEE24A0
:1029D000E394E8012196F8018491843770F48430FF
:1029E00008F05FC08130B1F08230A1F1DF91CF916A
:1029F0001F910F91FF90EF900895853709F44CC017
:102A000008F43DC09CE7980F903780F78F770E94BD
:102A1000710D49C00E5F1F4FFE01849190E2980F27
:102A2000983060F48770FE2D01C0FF0F8A95EAF799
:102A30008F2F0E9464170E948B1702C00E94BB0C4C
:102A40008F2D815030F2EFE9FFE03197F1F700C0B0
:102A50000000F7CF0E5F1F4FFE01849190E2980FA8
:102A6000983050F48770FE2D01C0FF0F8A95EAF769
:102A70008F2F0E946A17DFCF0E94710DE1CF0E5F8A
:102A80001F4FFE01C491C150D8F28FE99FE001971A
:102A9000F1F700C00000F7CF0E5F1F4FFE01F4906A
:102AA000CFCF0E94BB0C8E01CBCF08956093AC01B9
:102AB0007093AD018093AE019093AF010C9483119C
:102AC0000F931F930091AC011091AD012091AE01C5
:102AD0003091AF01DC01CB01802B912BA22BB32BCA
:102AE0008093AC019093AD01A093AE01B093AF0180
:102AF0001F910F910C9483110F931F930091AC01C0
:102B00001091AD012091AE013091AF01DC01CB01FC
:102B100080239123A223B3238093AC019093AD0132
:102B2000A093AE01B093AF011F910F910C9483114C
:102B30000F931F930091AC011091AD012091AE0154
:102B40003091AF01DC01CB0180279127A227B32769
:102B50008093AC019093AD01A093AE01B093AF010F
:102B60001F910F910C9483111092A8011092A9014A
:102B70001092AA011092AB010C94831141E050E035
:102B800060E070E004C0440F551F661F771F8A95F0
:102B9000D2F74093A8015093A9016093AA017093C2
:102BA000AB010C94831141E050E060E070E004C0A0
:102BB000440F551F661F771F8A95D2F78091A80191
:102BC0009091A901A091AA01B091AB01842B952B02
:102BD000A62BB72B8093A8019093A901A093AA01DB
:102BE000B093AB010C94831141E050E060E070E0E1
:102BF00004C0440F551F661F771F8A95D2F7409572
:102C00005095609570958091A8019091A901A0912F
:102C1000AA01B091AB0184239523A623B723809307
:102C2000A8019093A901A093AA01B093AB010C94C1
:102C3000831141E050E060E070E004C0440F551F94
:102C4000661F771F8A95D2F78091A8019091A901FC
:102C5000A091AA01B091AB0184279527A627B72799
:102C60008093A8019093A901A093AA01B093AB010E
:102C70000C9483110F931F930091A8011091A90147
:102C80002091AA013091AB01DC01CB01802B912B6B
:102C9000A22BB32B8093A8019093A901A093AA0122
:102CA000B093AB011F910F910C9483110F931F935D
:102CB0000091A8011091A9012091AA013091AB01C6
:102CC000DC01CB0180239123A223B3238093A801AD
:102CD0009093A901A093AA01B093AB011F910F910A
:102CE0000C9483110F931F930091A8011091A901D7
:102CF0002091AA013091AB01DC01CB018027912703
:102D0000A227B3278093A8019093A901A093AA01B9
:102D1000B093AB011F910F910C9483110895CF9242
:102D2000DF92EF92FF920F931F93CF93DF938C016B
:102D3000C090A801D090A901E090AA01F090AB0149
:102D40008091AC019091AD01A091AE01B091AF0125
:102D5000C82AD92AEA2AFB2ACFE1D0E0D701C60146
:102D60000C2E04C0B695A795979587950A94D2F72F
:102D700080FF10C0B8018C2F0E945518813091053A
:102D800049F0DF91CF911F910F91FF90EF90DF906D
:102D9000CF900895219710F7B80180E00E94551850
:102DA000F0CF90910C019923E1F090910D019923BE
:102DB000C1F0E82FE695E695E695EF3038F52091DD
:102DC0000E0130910F01E20FF32FF11D877021E00A
:102DD00030E001C0220F8A95EAF78181822B81833E
:102DE000089520910E0130910F01F90132969FEF65
:102DF00040E05191851751F09F3F19F4511101C0E6
:102E0000942F4F5F4E30A9F79F3F09F40895290F83
:102E1000311D97FD3A95F9018283089590910C0137
:102E20009923F1F090910D019923D1F0E82FE695C7
:102E3000E695E695EF3028F520910E0130910F01CF
:102E4000E20FF32FF11D282F277081E090E001C0E1
:102E5000880F2A95EAF780959181892381830895C7
:102E600020910E0130910F01F9013296205F3F4F02
:102E70009191891303C0DF0111971C92E217F307A8
:102E8000B9F7089581E090E0E0910E01F0910F0113
:102E9000E80FF91F1082019680319105A9F7089576
:102EA0008091C20108959091C201892B8093C20143
:102EB0000895982F90958091C20189238093C20133
:102EC00008951092C20108959091C101892B8093B9
:102ED000C1010895982F90958091C1018923809315
:102EE000C10108951092C10108958093B001089521
:102EF0001092B001089520910E0130910F01F90157
:102F00003196205F3F4F80E0919191118F5FE217E2
:102F1000F307D1F70895E0910E01F0910F01809130
:102F2000C2018083E0910E01F0910F0180819091A8
:102F3000C101892B80839091B001992361F0E091C8
:102F40000E01F0910F018081892B80830E947B17F5
:102F500081111092B00180910E0190910F010C949B
:102F60008A0BCF93DF938D3B80F4883AB0F5853A96
:102F700048F5843020F5C1E0D0E0813011F0D0E098
:102F8000C0E0CE01DF91CF910895883E90F4803E5D
:102F9000B0F48F3BA1F70E9495112FEF80E792E0EC
:102FA000215080409040E1F700C000000E9490193D
:102FB000E8CF803F20F3C82FD0E0D065E2CFC82F04
:102FC000D0E0DFCFC1E8D0E4853AD9F2C3E8D0E45D
:102FD000863AB9F6C2E8D0E4D4CFC2EED4E4883A57
:102FE00081F2C9EED4E4893A61F2CAEED4E48A3AB5
:102FF00041F2C5EBD4E48B3A21F2C6EBD4E48C3A2F
:1030000009F4BFCFC3EBD4E48B3B09F4BACFC4EBD4
:10301000D4E48C3B09F4B5CFC7EBD4E48D3A09F482
:10302000B0CFCCECD4E4803B09F4ABCFCDECD4E40E
:103030008E3A09F4A6CFC3E8D5E48F3A09F4A1CFBC
:10304000CAE8D5E4813B09F49CCFC2E9D5E4823BD0
:1030500009F497CFC4E9D5E4833B09F492CFC1E2E8
:10306000D6E4843B09F48DCFC3E2D6E4853B09F472
:1030700088CFC4E2D6E4863B09F483CFC5E2D6E428
:10308000873B09F47ECFC6E2D6E4883B09F479CFCA
:10309000C7E2D6E4893B09F474CFC0E0D4E48A3BAC
:1030A00009F06FCFCAE2D6E46CCF0E94A702803E3F
:1030B000D0F4803C88F5813309F452C040F4893261
:1030C00009F448C08A3209F451C00C94B11789330D
:1030D00029F1823819F18533C1F78091D40185FF38
:1030E0003DC089E2F2CF833E39F160F4803EE1F0E9
:1030F000823E59F78091D40182FF22C084FF1AC01A
:1031000080E0E3CF863EF1F0873EF9F68091D4016E
:1031100083FF1CC086EED9CF0C94B7029091D401E6
:10312000937099F280EED1CF8091D40180FFFACFD5
:1031300089E3CBCF83EEC9CF8091D40182FFDECF6C
:1031400082EEC3CF8091D40183FFE4CF84FDD8CF3A
:1031500087EEBBCF8091D40185FFC3CF85E3B5CF88
:103160008091D40186FF06C08AE2AFCF8091D4015E
:1031700086FFFACF81E3A9CF90E080E008958091A7
:10318000D901843021F11092C40188E190E020E45B
:103190000FB6F894A895809360000FBE209360004E
:1031A00083B7817F846083BF83B7816083BF789456
:1031B000889583B78E7F83BF0FB6F894A8958091CA
:1031C0006000886180936000109260000FBE0895D7
:1031D00008950895CF930E94E8180E9410030E945A
:1031E000E918C0E08C2F0E940404892B31F4CF5FD2
:1031F000C530C1F780E0CF91089581E0FCCF0E94F7
:1032000095110C94611F1F920F920FB60F9211240B
:103210008F939F93AF93BF938091C401811113C08B
:103220008091C5019091C601A091C701B091C801DC
:103230004196A11DB11D8093C5019093C601A09335
:10324000C701B093C801BF91AF919F918F910F902B
:103250000FBE0F901F90189582E084BD93E095BD3E
:103260009AEF97BD80936E0008952FB7F8948091E0
:10327000C5019091C601A091C701B091C8012FBFAF
:103280000895CF92DF92EF92FF920F931F932FB783
:10329000F8944091C5015091C6016091C7017091A9
:1032A000C8012FBF6A017B01EE24FF248C0130E0AE
:1032B00020E0C016D106E206F30650F0481B590B79
:1032C000CA011F910F91FF90EF90DF90CF9008956A
:1032D00041505109F3CF1F920F920FB60F92112454
:1032E0008F939F93AF93BF938091C5019091C60137
:1032F000A091C701B091C8010196A11DB11D809395
:10330000C5019093C601A093C701B093C801BF91B6
:10331000AF919F918F910F900FBE0F901F901895B6
:103320000E949A08F8942FEF87EA91E62150804096
:103330009040E1F700C0000087E090EBDC01809353
:10334000E3019093E401A093E501B093E60188E1E5
:103350009CE00FB6F894A895809360000FBE909300
:103360006000FFCFCF92DF92EF92FF920F931F93F7
:10337000CF93DF93D82FC0E0EE24E394F12C8C2F71
:103380000E9404046C0110E000E0C701002E02C09E
:10339000880F991F0A94E2F78C219D21892B91F4C3
:1033A0000F5F1F4F0E30110581F7CF5FC53039F722
:1033B00080E0DF91CF911F910F91FF90EF90DF9010
:1033C000CF900895602F7C2F80E00E94A7028D137C
:1033D000E7CF81E0EECFCF93C82F8CE20E94B219E5
:1033E000882321F08C2FCF910C94B21980E0CF91DB
:1033F0000895CF930E94131B811102C00E94F41AFA
:10340000C5E608C00E9410038FE39CE90197F1F71D
:1034100000C00000C150B1F789E20E94EB19811190
:10342000E1C08AE20E94EB1981110E94F41A85E042
:103430000E94EB1981110E9490190E941E1B80931B
:10344000C30187E00E94EB19882371F08BE10E9491
:10345000EB19882309F4A9C09091C301892F8D7FAE
:1034600091FF82608093C3010E94221B8093D4014C
:1034700080EE0E94EB19882341F09091D401892FAE
:103480008E7F90FF81608093D40189E30E94EB19C5
:10349000882341F09091D401892F8D7F91FF826024
:1034A0008093D40182EE0E94EB19882341F0909121
:1034B000D401892F8B7F92FF84608093D40186EEA4
:1034C0000E94EB19882341F09091D401892F877FC6
:1034D00093FF88608093D40183EE0E94EB198823C8
:1034E00041F09091D401892F8F7E94FF8061809369
:1034F000D40185E30E94EB19882341F09091D40117
:10350000892F8F7D95FF80628093D40181E30E9493
:10351000EB19882341F09091D401892F8F7B96FF7E
:1035200080648093D40181E10E94EB19882341F0EB
:103530009091D401892F97FB87F980588093D4010B
:103540008091D40187FB882780F980930D0187E261
:103550000E94EB19C82F8EE10E94EB198111C26005
:103560008FE10E94EB198111C46080E20E94EB1987
:103570008111C86081E20E94EB198111C06182E271
:103580000E94EB198111C06283E20E94EB19811144
:10359000C06484E20E94EB198111C0686C2F70E056
:1035A00090E080E0CF910C9456158EE00E94EB19CC
:1035B000882339F09091C301892F8B7F92FF84601B
:1035C00051CF80E10E94EB199091C301882329F02B
:1035D000892F877F93FF886045CF892F8E7F90FF4B
:1035E000816040CFCF9108956DEE7EEF90E080E056
:1035F0000E946E2160E082E090E00E94602160E025
:1036000083E090E00E94602160E084E090E00E940E
:10361000602160E085E090E00E94602160E086E04B
:1036200090E00C94602190E080E00E945A2121E01B
:103630008D3E9E4F09F020E0822F089582E090E0B9
:103640000C94522184E090E00C94522186E090E0AA
:103650000C945221682F86E090E00C9460218091B8
:10366000CB0180FF12C06091130185E0689FB0011B
:103670001124759567957595679560387105A8F55E
:1036800061157105A1F1862F089581FF09C0609130
:10369000130185E0689FB001112475956795EDCF02
:1036A00082FF07C06091130185E0689FB00111247B
:1036B000E4CF2091CC012223A9F0909112016091D6
:1036C000130185E0689FB00111242917B0F6269FE9
:1036D000A001279F500D1124692F70E0CA010E949C
:1036E0002421CBCF65E070E0CECF8FE7089581E055
:1036F00008958091CB0180FF0CC06091110170E0B2
:1037000075956795759567956115710549F1862FD2
:10371000089581FF06C06091110170E0759567956D
:10372000F3CF6091110182FD0BC09091CC019923E0
:10373000A1F06091100180911101961738F0682F67
:1037400070E06038710500F38FE70895899FC0012C
:10375000112470E00E942421F4CF61E070E0D7CF03
:1037600081E00895803F31F40E942F1B8195809362
:10377000CF010895813F19F40E942F1BF8CF823F9B
:1037800031F40E942F1B81958093CE010895833FD1
:1037900019F40E942F1BF8CF893F29F40E94791B4E
:1037A0008093D00108958A3F21F40E94791B81956E
:1037B000F7CF8B3F31F40E94791B81958093D10123
:1037C00008958C3F19F40E94791BF8CF843F31F49F
:1037D0008091CD0181608093CD010895853F21F4D2
:1037E0008091CD018260F7CF863F21F48091CD0199
:1037F0008460F1CF873F21F48091CD018860EBCFC9
:10380000883F21F48091CD018061E5CF8D3F31F477
:103810008091CB0181608093CB0108958E3F21F48C
:103820008091CB018260F7CF8F3FB9F78091CB01B8
:103830008460F1CF803FC1F48091CF0187FD109269
:10384000CF018091CE0181110EC08091CF018111F5
:103850000AC08091D001811106C08091D1018111EF
:1038600002C01092CC010895813F29F48091CF01CC
:1038700018162CF3E6CF9091CE01823F29F497FFE2
:10388000E0CF1092CE01DDCF833F19F41916CCF3AF
:10389000D8CF893F39F48091D001181694F6109250
:1038A000D001CFCF8A3F29F48091D00187FFC9CFC3
:1038B000F6CF8B3F39F48091D10187FFC2CF1092B0
:1038C000D101BFCF8C3F29F48091D1011816BCF3F0
:1038D000B8CF843F31F48091CD018E7F8093CD01AC
:1038E000B0CF853F21F48091CD018D7FF7CF863F0A
:1038F00021F48091CD018B7FF1CF873F21F480911E
:10390000CD01877FEBCF883F21F48091CD018F7E61
:10391000E5CF8D3F31F48091CB018E7F8093CB0139
:1039200090CF8E3F21F48091CB018D7FF7CF8F3FD9
:1039300009F087CF8091CB018B7FF0CF8DEC91E0A8
:103940000E94950B0E9435199093CA018093C9017A
:1039500008951F93CF93DF938091C9019091CA017D
:103960000E944119AC019091CC012091140130E0EA
:10397000911106C0209115018AE0289F9001112421
:103980004217530780F08091CE01C091CF01109172
:10399000D001D091D10181110AC0C11178C011119B
:1039A00076C0D11174C0DF91CF911F9108959F3FD0
:1039B00019F09F5F9093CC01181624F40E942F1BDE
:1039C0008093CE018091CE0187FF05C00E942F1BFE
:1039D00081958093CE011C1624F40E942F1B8093A6
:1039E000CF018091CF0187FF05C00E942F1B8195D9
:1039F0008093CF016091CE01662331F1C091CF0158
:103A0000CC2311F1062E000C770B880B990B0E942A
:103A10002B2023E333E343E35FE30E948F200E94E4
:103A2000F31F6093CE016C2FCC0F770B880B990B93
:103A30000E942B2023E333E343E35FE30E948F20C4
:103A40000E94F31F6093CF01111624F40E94791B8A
:103A50008093D0018091D00187FF05C00E94791B1F
:103A600081958093D0011D1624F40E94791B8093C8
:103A7000D1018091D10187FF05C00E94791B8195FA
:103A80008093D101DF91CF911F910C949E1C9F3F99
:103A900009F08FCFA0CF85E0EDECF1E0DF011D92C2
:103AA0008A95E9F71092CC011092CB0108958330EA
:103AB00081F128F4813059F08230D1F008958530B9
:103AC00009F449C0B8F1863009F456C008958091D0
:103AD0001501482F460F5527551F4F3F510524F418
:103AE000680F6093150108958FEF80931501089575
:103AF00080911401482F460F5527551F4F3F510500
:103B000024F4680F6093140108958FEF80931401DB
:103B1000089580911301482F460F5527551F4F3F99
:103B2000510524F4680F6093130108958FEF80937B
:103B30001301089580911201482F460F5527551FF4
:103B40004F3F510524F4680F6093120108958FEFE1
:103B500080931201089580911101482F460F552737
:103B6000551F4F3F510524F4680F609311010895CC
:103B70008FEF80931101089580911001482F460F17
:103B80005527551F4F3F510524F4680F60931001CE
:103B900008958FEF809310010895833011F128F478
:103BA000813049F0823091F00895853081F120F123
:103BB0008630C1F1089580911501681720F4861BA5
:103BC00080931501089510921501089580911401B4
:103BD000681720F4861B8093140108951092140135
:103BE000089580911301681720F4861B80931301B8
:103BF000089510921301089580911201681720F41E
:103C0000861B8093120108951092120108958091ED
:103C10001101681720F4861B8093110108951092FA
:103C20001101089580911001681720F4861B80937C
:103C3000100108951092100108950F931F938B3176
:103C400009F487C050F58E3009F491C080F48730B4
:103C500009F476C028F4863009F466C080E06DC0AF
:103C6000883009F45AC08B30C9F781E066C08131D1
:103C700009F488C068F4803189F79091C301892FD5
:103C8000877F93FF88608093C30183FD6CC0EDCF75
:103C9000863159F3893149F3E1CF8533C9F008F50D
:103CA0008732B1F098F48E31C8F28D5141E050E086
:103CB00060E070E08A019B0104C0000F111F221F09
:103CC000331F8A95D2F7C901B80106C0893231F68F
:103CD00061E070E080E090E00E9456150E9495112E
:103CE000C4CF833438F48A3308F055C0883309F4DC
:103CF000BCCFB4CF833461F3883409F0AFCF0E94D6
:103D000095110FEF13ED20E3015010402040E1F733
:103D100000C000000E949019A8CF0E941E1B0E94A4
:103D2000221B0E94261BA1CF8091C301817F8E7F21
:103D30008093C30181E08093D3011F910F91089577
:103D40008091C30180FF0FC0817F8E7F8093C3016C
:103D50008CCF9091C301892F8D7F91FF82608093DA
:103D6000C30181FF82CF8091C3018160EFCF909129
:103D7000C301892F8B7F92FF84608093C30182FDF2
:103D8000F2CF73CF0E94951180910D0191E08927A8
:103D900080930D016ACF895389CF80E008950C94F8
:103DA000CD1ECF93C82F8091D3018130C9F030F060
:103DB0008230D9F11092D30180E010C0E0910E0161
:103DC000F0910F0180818232B9F78C2F0E94CD1EB5
:103DD00081111BC08C2F0E941D1E8170CF910895F0
:103DE000E0910E01F0910F018081823271F38C2FEE
:103DF0000E94CF1E811110C0C43181F048F4CB3035
:103E000059F0C03171F080E0E8CF81E090E0E5CF7B
:103E1000C93221F0C833B9F781E0DFCF1092D30166
:103E2000F2CF82E08093D301F7CFC93221F190F431
:103E3000C43109F120F4C73089F181E0CFCFCE51F0
:103E4000C630D8F7EC2FF0E0E65DFE4F808180931E
:103E5000D201F3CFCE3401F140F46AE0CB3469F7FC
:103E60008091D2010E94571DE8CFC13579F061E001
:103E7000C235B1F3E2CF8091D201882319F01092BC
:103E8000D201DBCF81E08093D301A8CF61E08091A4
:103E9000D2010E94CD1DD1CF6AE0F9CF8EE180938F
:103EA000150182E3809314018AE08093130184E179
:103EB0008093120188E08093110188E280931001C1
:103EC000BCCF0E94131B811102C00E94F41A0E94F1
:103ED000261B8093E20180FF03C086950C94390471
:103EE00080E0FCCF9091E201892F8695833058F4D1
:103EF0008F5F282F220F892F8170822B8160809302
:103F0000E2010E942A1B8091E20186950C943904FB
:103F10008091E201982F9E7F79F082508093E20198
:103F20008E7F91E009F490E08091E20190FB80F9AE
:103F30008093E2010E942A1B8091E20186950C94F5
:103F400039049091E201892F8E7F90FF81608093E8
:103F5000E2010E942A1B8091E20180FF03C0869546
:103F60000C94390480E0FCCF9091E201892F869572
:103F70008F5F8F7791708430B8F4880F892B80938E
:103F8000E2018091E2018E7F91E009F490E080915E
:103F9000E20190FB80F98093E2010E942A1B80914C
:103FA000E20186950C9439049093E201EACF909156
:103FB000E201292F26958227880F9170982B9093E4
:103FC000E2019E7F21E009F420E08091E20120FBE4
:103FD00080F98093E2010E942A1B8091E20186957C
:103FE0000C94390408950E94FA1F6894B1110C943E
:103FF000892008950E946E2088F09F5798F0B92F6D
:104000009927B751B0F0E1F0660F771F881F991F0D
:104010001AF0BA95C9F714C0B13091F00E94882007
:10402000B1E008950C948820672F782F8827B85F17
:1040300039F0B93FCCF3869577956795B395D9F765
:104040003EF490958095709561957F4F8F4F9F4F6F
:104050000895E89409C097FB3EF49095809570957B
:1040600061957F4F8F4F9F4F9923A9F0F92F96E9C4
:10407000BB279395F695879577956795B795F11139
:10408000F8CFFAF4BB0F11F460FF1BC06F5F7F4FD6
:104090008F4F9F4F16C0882311F096E911C07723E8
:1040A00021F09EE8872F762F05C0662371F096E8F1
:1040B000862F70E060E02AF09A95660F771F881FC0
:1040C000DAF7880F9695879597F9089557FD9058D8
:1040D000440F551F59F05F3F71F04795880F97FBCC
:1040E000991F61F09F3F79F0879508951216130686
:1040F0001406551FF2CF4695F1DF08C016161706B5
:104100001806991FF1CF86957105610508940895E9
:10411000E894BB2766277727CB0197F908950E947B
:10412000A2200C9413210E94052138F00E940C213A
:1041300020F0952311F00C94FC200C940221112402
:104140000C9489200E94662070F3959FC1F3950F0F
:1041500050E0551F629FF001729FBB27F00DB11D0B
:10416000639FAA27F00DB11DAA1F649F6627B00D9B
:10417000A11D661F829F2227B00DA11D621F739F84
:10418000B00DA11D621F839FA00D611D221F749F92
:104190003327A00D611D231F849F600D211D822FD9
:1041A000762F6A2F11249F5750409AF0F1F0882300
:1041B0004AF0EE0FFF1FBB1F661F771F881F91502D
:1041C0005040A9F79E3F510580F00C94FC200C94C0
:1041D00089205F3FE4F3983ED4F386957795679501
:1041E000B795F795E7959F5FC1F7FE2B880F911D57
:1041F0009695879597F9089597F99F6780E870E0FD
:1042000060E008959FEF80EC089500240A9416164C
:10421000170618060906089500240A9412161306B4
:10422000140605060895092E0394000C11F4882342
:1042300052F0BB0F40F4BF2B11F460FF04C06F5F5E
:104240007F4F8F4F9F4F089597FB072E16F40094D2
:1042500007D077FD09D00E943E2107FC05D03EF42F
:10426000909581959F4F0895709561957F4F089522
:10427000EE0FFF1F0590F491E02D0994AA1BBB1BC4
:1042800051E107C0AA1FBB1FA617B70710F0A61B56
:10429000B70B881F991F5A95A9F780959095BC0177
:1042A000CD010895F999FECF92BD81BDF89A992765
:1042B00080B50895A8E1B0E042E050E00C9475218B
:1042C000262FF999FECF1FBA92BD81BD20BD0FB632
:1042D000F894FA9AF99A0FBE019608950E94602107
:1042E000272F0C946121DC01CB01FC01F999FECF51
:1042F00006C0F2BDE1BDF89A319600B40D9241506E
:0A4300005040B8F70895F894FFCF7D
:10430A0005FFA50435051005DC04A8040101B10167
:10431A002808140A321E3F4D36393304E603B00327
:10432A0077030A0323033C0355030102030405062A
:04433A000708090067
:00000001FF
